:10008C00EF1FAC0670011E4C600C00007D2C7C1325
:06009C00DCFEDDFC80EA41
:0100A200223B
:1000A300EF1FAA0670011E4A60087D091DED60F06E
:0200B30080FAD1
:0100B5002228
:10004E00E4F592F591F5B2F5B1F5CAF5C97598508A
:10005E0075D7E875D6FF758E15D2ACD2AF75995A95
:05006E0075995A80FBAA
:030023000200B622
:0F00B600309904C299B2CD309804C298B2CD32BD
:10000300759850438E40538EFE53890F758BE87558
:090013008DFFC2ABD28ED2AC22EB
:0A00D100E50970FC7509018F992202
:100026008B0D8A0E890FED1DAE0470011C4E6017F4
:10003600AB0D050FE50FAA0E7002050E14F912009E
:0800460073FF1200D180DF22DC
:030000000200C536
:0C00C500787FE4F6D8FD75810F02004E34
:10007300BB010689828A83E0225002E722BBFE028B
:09008300E32289828A83E49322BE
:00000001FF
